74800000         217981515000112                    00437 0000000011578 CABANGU CAMPESTRE CLUBE       SICREDI                                 13108202313253900000408101600                                                                     
74800011R01  040 2017981515000112                    00437 0000000011578 CABANGU CAMPESTRE CLUBE                                                                                       000000043108202300000000                                 
7480001300001P 0100437 0000000011578 23245016800000000000111220000045016000001109202300000000002050000000 03N31082023211102023000000000000105000000000000000000000000000000000000000000000000000000                         3001000090000000000 
7480001300002Q 011000003380420670ADALECIO ESTEVES COSTA                  Avenida Palmira130                                     36244195Santos Dumont  MG0                                                       000                            
7480001300003P 0100437 0000000011578 23245017400000000000111220000045017000001109202300000000002050000000 03N31082023211102023000000000000105000000000000000000000000000000000000000000000000000000                         3001000090000000000 
7480001300004Q 011000082005966649ADENILSON DOS SANTOS ARAUJO             Rua Otavio Soares348                                   36246042Santos Dumont  MG0                                                       000                            
7480001300005P 0100437 0000000011578 23245018000000000000111220000045018000001109202300000000002050000000 03N31082023211102023000000000000105000000000000000000000000000000000000000000000000000000                         3001000090000000000 
7480001300006Q 011000096002093672ADRIANA APARECIDA DE MORAES             Rua Geraldo de Paiva176                                36244150Santos Dumont  MG0                                                       000                            
7480001300007P 0100437 0000000011578 23245019700000000000111220000045019000001109202300000000002050000000 03N31082023211102023000000000000105000000000000000000000000000000000000000000000000000000                         3001000090000000000 
7480001300008Q 011000099822466668ADRIANA CAMPOS DO NASCIMENTO            Rua Oswaldo Cruz110                                    36240223Santos Dumont  MG0                                                       000                            
7480001300009P 0100437 0000000011578 23245020500000000000111220000045020000001109202300000000002050000000 03N31082023211102023000000000000105000000000000000000000000000000000000000000000000000000                         3001000090000000000 
7480001300010Q 011000061290971668ADRIANA HERTHEL DE PAULA CIONI          Avenida Presidente Getulio Vargas279                   36240075Santos Dumont  MG0                                                       000                            
7480001300011P 0100437 0000000011578 23245021100000000000111220000045021000001109202300000000002050000000 03N31082023211102023000000000000105000000000000000000000000000000000000000000000000000000                         3001000090000000000 
7480001300012Q 011000004187491678ADRIANA PEREIRA PAULINO                 Rua Manoel Alves Borges85                              36242024Santos Dumont  MG0                                                       000                            
7480001300013P 0100437 0000000011578 23245022800000000000111220000045022000001109202300000000002050000000 03N31082023211102023000000000000105000000000000000000000000000000000000000000000000000000                         3001000090000000000 
7480001300014Q 011000007299015641ADRIANO GOUVEA COELHO                   Rua Sarah Couri de Castro510                           36242344Santos Dumont  MG0                                                       000                            
7480001300015P 0100437 0000000011578 23245023400000000000111220000045023000001109202300000000002050000000 03N31082023211102023000000000000105000000000000000000000000000000000000000000000000000000                         3001000090000000000 
7480001300016Q 011000079000320615ADRIANO TADEU E SILVA                   Rua Zulmira Stwillians99                               36244086Santos Dumont  MG0                                                       000                            
7480001300017P 0100437 0000000011578 23245024000000000000111220000045024000001109202300000000002050000000 03N31082023211102023000000000000105000000000000000000000000000000000000000000000000000000                         3001000090000000000 
7480001300018Q 011000007163711620AFONSO CARLOS DO NASCIMENTO             Rua Antonio Ladeira78                                  36240030Santos Dumont  MG0                                                       000                            
7480001300019P 0100437 0000000011578 23245025700000000000111220000045025000001109202300000000002050000000 03N31082023211102023000000000000105000000000000000000000000000000000000000000000000000000                         3001000090000000000 
7480001300020Q 011000052997138604AFRANIO RABELLO DE OLIVEIRA             TRAVESSA TIRADENTES62                                  36240000Santos Dumont  MG0                                                       000                            
7480001300021P 0100437 0000000011578 23245026300000000000111220000045026000001109202300000000002050000000 03N31082023211102023000000000000105000000000000000000000000000000000000000000000000000000                         3001000090000000000 
7480001300022Q 011000001587737647ALAN DOMINGOS DE PAULO FERREIRA         Rua Carlos Huack117                                    36242304Santos Dumont  MG0                                                       000                            
7480001300023P 0100437 0000000011578 23245027000000000000111220000045027000001109202300000000002050000000 03N31082023211102023000000000000105000000000000000000000000000000000000000000000000000000                         3001000090000000000 
7480001300024Q 011000099511231634ALDA MARIA REIS                         Rua Jacob Dittiz16                                     36240024Santos Dumont  MG0                                                       000                            
7480001300025P 0100437 0000000011578 23245028600000000000111220000045028000001109202300000000002050000000 03N31082023211102023000000000000105000000000000000000000000000000000000000000000000000000                         3001000090000000000 
7480001300026Q 011000085221511649ALESSANDRA NASCIMENTO COSTA BERNARD     Rua Esperanto129                                       36240226Santos Dumont  MG0                                                       000                            
7480001300027P 0100437 0000000011578 23245029200000000000111220000045029000001109202300000000002050000000 03N31082023211102023000000000000105000000000000000000000000000000000000000000000000000000                         3001000090000000000 
7480001300028Q 011000005497160689ALEX DA SILVA GUEDES                    Rua Doutor Celso Vieira Marques47                      36242360Santos Dumont  MG0                                                       000                            
7480001300029P 0100437 0000000011578 23245030000000000000111220000045030000001109202300000000002050000000 03N31082023211102023000000000000105000000000000000000000000000000000000000000000000000000                         3001000090000000000 
7480001300030Q 011000005615098678ALEXANDRA DE ALMEIDA                    Rua Carlos Gomes34                                     36240144Santos Dumont  MG0                                                       000                            
7480001300031P 0100437 0000000011578 23245031700000000000111220000045031000001109202300000000002050000000 03N31082023211102023000000000000105000000000000000000000000000000000000000000000000000000                         3001000090000000000 
7480001300032Q 011000003271038767ALEXANDRE DA SILVA BEZERRA              Rua Geraldo Vitalino Galdino27                         36242300Santos Dumont  MG0                                                       000                            
7480001300033P 0100437 0000000011578 23245032300000000000111220000045032000001109202300000000002050000000 03N31082023211102023000000000000105000000000000000000000000000000000000000000000000000000                         3001000090000000000 
7480001300034Q 011000005306354610ALEXANDRE DIMAS DA SILVEIRA SOUZA FILHO Praca Cesario Alvim38                                  36240096Santos Dumont  MG0                                                       000                            
7480001300035P 0100437 0000000011578 23245033000000000000111220000045033000001109202300000000002050000000 03N31082023211102023000000000000105000000000000000000000000000000000000000000000000000000                         3001000090000000000 
7480001300036Q 011000005587513696ALEXANDRE THADEU LOPES DA SILVA         Rua Coronel Serrado46                                  36240087Santos Dumont  MG0                                                       000                            
7480001300037P 0100437 0000000011578 23245034600000000000111220000045034000001109202300000000002050000000 03N31082023211102023000000000000105000000000000000000000000000000000000000000000000000000                         3001000090000000000 
7480001300038Q 011000010575914670ALEXSANDER JOSE SANTOS CANTARINO        Rua Vieira Braga22                                     36240081Santos Dumont  MG0                                                       000                            
7480001300039P 0100437 0000000011578 23245035200000000000111220000045035000001109202300000000002050000000 03N31082023211102023000000000000105000000000000000000000000000000000000000000000000000000                         3001000090000000000 
7480001300040Q 011000085242616687ALINE BASTOS MARTINS                    Rua Joao Gomes120                                      36240054Santos Dumont  MG0                                                       000                            
7480001300041P 0100437 0000000011578 23245036900000000000111220000045036000001109202300000000002050000000 03N31082023211102023000000000000105000000000000000000000000000000000000000000000000000000                         3001000090000000000 
7480001300042Q 011000033060576653ALOISIO AUGUSTO HYPOLITO DA SILVA       Rua Treze de Maio307                                   36240057Santos Dumont  MG0                                                       000                            
7480001300043P 0100437 0000000011578 23245037500000000000111220000045037000001109202300000000002050000000 03N31082023211102023000000000000105000000000000000000000000000000000000000000000000000000                         3001000090000000000 
7480001300044Q 011000011596224690AMANDA CONCEICAO SILVA PIRES            Rua Zulmira Stwillians25                               36244086Santos Dumont  MG0                                                       000                            
7480001300045P 0100437 0000000011578 23245038100000000000111220000045038000001109202300000000002050000000 03N31082023211102023000000000000105000000000000000000000000000000000000000000000000000000                         3001000090000000000 
7480001300046Q 011000043623190691AMARILDO FERNANDES PATICCIE             Rua Carlos Augusto Nascimento171                       36246338Santos Dumont  MG0                                                       000                            
7480001300047P 0100437 0000000011578 23245039800000000000111220000045039000001109202300000000002050000000 03N31082023211102023000000000000105000000000000000000000000000000000000000000000000000000                         3001000090000000000 
7480001300048Q 011000003759804667AMARILDO FONTAINHA RIBEIRO              R. SAO DOMINGOS 137                                    36240000SANTOS DUMONT  MG0                                                       000                            
7480001300049P 0100437 0000000011578 23245040600000000000111220000045040000001109202300000000002050000000 03N31082023211102023000000000000105000000000000000000000000000000000000000000000000000000                         3001000090000000000 
7480001300050Q 011000033061521615AMERICO RAFAEL BOZA                     Rua Frei Edmar Pulmann515                              36242028Santos Dumont  MG0                                                       000                            
7480001300051P 0100437 0000000011578 23245041200000000000111220000045041000001109202300000000002050000000 03N31082023211102023000000000000105000000000000000000000000000000000000000000000000000000                         3001000090000000000 
7480001300052Q 011000007826740622ANA CARINA MARQUES DA COSTA             R. OTAVIO SOARES 303                                   36240000SANTOS DUMONT  MG0                                                       000                            
7480001300053P 0100437 0000000011578 23245042900000000000111220000045042000001109202300000000002050000000 03N31082023211102023000000000000105000000000000000000000000000000000000000000000000000000                         3001000090000000000 
7480001300054Q 011000006222575609ANA CAROLINA CORREA SALVIO              RUA H28                                                36205244Barbacena      MG0                                                       000                            
7480001300055P 0100437 0000000011578 23245043500000000000111220000045043000001109202300000000002050000000 03N31082023211102023000000000000105000000000000000000000000000000000000000000000000000000                         3001000090000000000 
7480001300056Q 011000008823577608ANA CLAUDIA ALVIM DE PAULA              Rua Vigario Raimundo371                                36240132Santos Dumont  MG0                                                       000                            
7480001300057P 0100437 0000000011578 23245044100000000000111220000045044000001109202300000000002050000000 03N31082023211102023000000000000105000000000000000000000000000000000000000000000000000000                         3001000090000000000 
7480001300058Q 011000009379643608ANA LUISA BRANDAO SILVA                 Rua Sao Jose101                                        36240171Santos Dumont  MG0                                                       000                            
7480001300059P 0100437 0000000011578 23245045800000000000111220000045045000001109202300000000002050000000 03N31082023211102023000000000000105000000000000000000000000000000000000000000000000000000                         3001000090000000000 
7480001300060Q 011000007113158684ANA PAULA FERREIRA                      Rua Zulmira Stwillians265                              36244086Santos Dumont  MG0                                                       000                            
7480001300061P 0100437 0000000011578 23245046400000000000111220000045046000001109202300000000002050000000 03N31082023211102023000000000000105000000000000000000000000000000000000000000000000000000                         3001000090000000000 
7480001300062Q 011000059953101604ANA PAULA VIEIRA MARQUES                Rua Afonso Pena 253                                    36240123Santos Dumont  MG0                                                       000                            
7480001300063P 0100437 0000000011578 23245047000000000000111220000045047000001109202300000000002050000000 03N31082023211102023000000000000105000000000000000000000000000000000000000000000000000000                         3001000090000000000 
7480001300064Q 011000005572626660ANALICE FERREIRA LIGOURI                Rua Mario de Freitas65                                 36246006Santos Dumont  MG0                                                       000                            
7480001300065P 0100437 0000000011578 23245048700000000000111220000045048000001109202300000000002050000000 03N31082023211102023000000000000105000000000000000000000000000000000000000000000000000000                         3001000090000000000 
7480001300066Q 011000003390428690ANDERSON BRAZ DA SILVA FORTES           Rua Afonso Pena516                                     36240123Santos Dumont  MG0                                                       000                            
7480001300067P 0100437 0000000011578 23245049300000000000111220000045049000001109202300000000002050000000 03N31082023211102023000000000000105000000000000000000000000000000000000000000000000000000                         3001000090000000000 
7480001300068Q 011000086218654672ANDERSON JOSE HELPES                    RUA ABILIO BITTAR112                                   36108000Ewbank da CamarMG0                                                       000                            
7480001300069P 0100437 0000000011578 23245050100000000000111220000045050000001109202300000000002050000000 03N31082023211102023000000000000105000000000000000000000000000000000000000000000000000000                         3001000090000000000 
7480001300070Q 011000005497602614ANDERSON MENDES VIEIRA                  Rua Esperanto38                                        36240226Santos Dumont  MG0                                                       000                            
7480001300071P 0100437 0000000011578 23245051800000000000111220000045051000001109202300000000002050000000 03N31082023211102023000000000000105000000000000000000000000000000000000000000000000000000                         3001000090000000000 
7480001300072Q 011000089914465668ANDRE DE PAIVA CORREA                   Rua Luiz Cunha147                                      36240018Santos Dumont  MG0                                                       000                            
7480001300073P 0100437 0000000011578 23245052400000000000111220000045052000001109202300000000002050000000 03N31082023211102023000000000000105000000000000000000000000000000000000000000000000000000                         3001000090000000000 
7480001300074Q 011000005768410643ANDRE LUIZ DE OLIVEIRA GERMANO          Rua Sao Jose116                                        36240171Santos Dumont  MG0                                                       000                            
7480001300075P 0100437 0000000011578 23245053000000000000111220000045053000001109202300000000002050000000 03N31082023211102023000000000000105000000000000000000000000000000000000000000000000000000                         3001000090000000000 
7480001300076Q 011000003557455696ANDRE LUIZ NASCIMENTO DE OLIVEIRA       Rua Prefeito Jose Goncalves Pereira268                 36240159Santos Dumont  MG0                                                       000                            
7480001300077P 0100437 0000000011578 23245054700000000000111220000045054000001109202300000000002050000000 03N31082023211102023000000000000105000000000000000000000000000000000000000000000000000000                         3001000090000000000 
7480001300078Q 011000008967964692ANDRE MENDES PALMIERI                   RUA JOSEFINA LADEIRA69                                 36240000SANTOS DUMONT  MG0                                                       000                            
7480001300079P 0100437 0000000011578 23245055300000000000111220000045055000001109202300000000002050000000 03N31082023211102023000000000000105000000000000000000000000000000000000000000000000000000                         3001000090000000000 
7480001300080Q 011000068195770606ANGELO CARVALHO DE MORAES JUNIOR        Avenida Presidente Getulio Vargas110                   36240078Santos Dumont  MG0                                                       000                            
7480001300081P 0100437 0000000011578 23245056000000000000111220000045056000001109202300000000002050000000 03N31082023211102023000000000000105000000000000000000000000000000000000000000000000000000                         3001000090000000000 
7480001300082Q 011000001374760609ANNA KAROLINA ROSCOE VIEIRA MARQUES DA SRua Afonso Pena253                                     36240123Santos Dumont  MG0                                                       000                            
7480001300083P 0100437 0000000011578 23245057600000000000111220000045057000001109202300000000002050000000 03N31082023211102023000000000000105000000000000000000000000000000000000000000000000000000                         3001000090000000000 
7480001300084Q 011000005748171660ANTONIO ABUD NETO                       Avenida Presidente Getulio Vargas456                   36240078Santos Dumont  MG0                                                       000                            
7480001300085P 0100437 0000000011578 23245058200000000000111220000045058000001109202300000000002050000000 03N31082023211102023000000000000105000000000000000000000000000000000000000000000000000000                         3001000090000000000 
7480001300086Q 011000006544801682ANTONIO ITALO PALMIERI ABDALLAH         Rua Sarah Couri de Castro115                           36242344Santos Dumont  MG0                                                       000                            
7480001300087P 0100437 0000000011578 23245059900000000000111220000045059000001109202300000000002050000000 03N31082023211102023000000000000105000000000000000000000000000000000000000000000000000000                         3001000090000000000 
7480001300088Q 011000012857428693ARTUR DA COSTA CAETANO                  Rua Antonio Ferreira Coutinho60                        36244156Santos Dumont  MG0                                                       000                            
7480001300089P 0100437 0000000011578 23245060700000000000111220000045060000001109202300000000002050000000 03N31082023211102023000000000000105000000000000000000000000000000000000000000000000000000                         3001000090000000000 
7480001300090Q 011000061289981604ATILIO ROTATORI                         Rua Sebastiao Davi Fonseca63                           36240220Santos Dumont  MG0                                                       000                            
7480001300091P 0100437 0000000011578 23245061300000000000111220000045061000001109202300000000002050000000 03N31082023211102023000000000000105000000000000000000000000000000000000000000000000000000                         3001000090000000000 
7480001300092Q 011000092334369691AUGUSTO AZEVEDO BARRETO                 Rua Afonso Pena553                                     36240123Santos Dumont  MG0                                                       000                            
7480001300093P 0100437 0000000011578 23245062000000000000111220000045062000001109202300000000002050000000 03N31082023211102023000000000000105000000000000000000000000000000000000000000000000000000                         3001000090000000000 
7480001300094Q 011000010035129689AUGUSTO SA FORTES CHEVITARESE CUNHA     Rua Doutor Guilherme de Castro1061                     36240183Santos Dumont  MG0                                                       000                            
7480001300095P 0100437 0000000011578 23245063600000000000111220000045063000001109202300000000002050000000 03N31082023211102023000000000000105000000000000000000000000000000000000000000000000000000                         3001000090000000000 
7480001300096Q 011000000461825600AUGUSTO VICENTE FONSECA CAETANO         Travessa Tiradentes105                                 36240165Santos Dumont  MG0                                                       000                            
7480001300097P 0100437 0000000011578 23245064200000000000111220000045064000001109202300000000002050000000 03N31082023211102023000000000000105000000000000000000000000000000000000000000000000000000                         3001000090000000000 
7480001300098Q 011000003835686682AURORA CAROLINA DOS SANTOS AMORIM       Rua Waldemar Silva262                                  36240072Santos Dumont  MG0                                                       000                            
7480001300099P 0100437 0000000011578 23245065900000000000111220000045065000001109202300000000002050000000 03N31082023211102023000000000000105000000000000000000000000000000000000000000000000000000                         3001000090000000000 
7480001300100Q 011000028524080663BERENICE FATIMA FERREIRA                Rua Capitao Nestor295                                  36246039Santos Dumont  MG0                                                       000                            
7480001300101P 0100437 0000000011578 23245066500000000000111220000045066000001109202300000000002050000000 03N31082023211102023000000000000105000000000000000000000000000000000000000000000000000000                         3001000090000000000 
7480001300102Q 011000007354534625BERNARDO CHAVES PEDRO FERNANDES BARRETO Rua Coronel Serrado61                                  36240087Santos Dumont  MG0                                                       000                            
7480001300103P 0100437 0000000011578 23245067100000000000111220000045067000001109202300000000002050000000 03N31082023211102023000000000000105000000000000000000000000000000000000000000000000000000                         3001000090000000000 
7480001300104Q 011000007675591690BRUNA XAVIER FREITAS                    Travessa Madre Dolores32                               36240174Santos Dumont  MG0                                                       000                            
7480001300105P 0100437 0000000011578 23245068800000000000111220000045068000001109202300000000002050000000 03N31082023211102023000000000000105000000000000000000000000000000000000000000000000000000                         3001000090000000000 
7480001300106Q 011000094231192634BRUNO BICALHO BERT                      Praca Bias Fortes198                                   36240138Santos Dumont  MG0                                                       000                            
7480001300107P 0100437 0000000011578 23245069400000000000111220000045069000001109202300000000002050000000 03N31082023211102023000000000000105000000000000000000000000000000000000000000000000000000                         3001000090000000000 
7480001300108Q 011000011114801682BRUNO DE OLIVEIRA                       Rua Afonso Pena230                                     36240123Santos Dumont  MG0                                                       000                            
7480001300109P 0100437 0000000011578 23245070200000000000111220000045070000001109202300000000002050000000 03N31082023211102023000000000000105000000000000000000000000000000000000000000000000000000                         3001000090000000000 
7480001300110Q 011000004994677603BRUNO FONSECA PEREIRA                   Rua Coronel Serrado80                                  36240087Santos Dumont  MG0                                                       000                            
7480001300111P 0100437 0000000011578 23245071900000000000111220000045071000001109202300000000002050000000 03N31082023211102023000000000000105000000000000000000000000000000000000000000000000000000                         3001000090000000000 
7480001300112Q 011000004641011664BRUNO FORTES GUERRA                     Rua Coronel Serrado52                                  36240087Santos Dumont  MG0                                                       000                            
7480001300113P 0100437 0000000011578 23245072500000000000111220000045072000001109202300000000002050000000 03N31082023211102023000000000000105000000000000000000000000000000000000000000000000000000                         3001000090000000000 
7480001300114Q 011000005057633627BRUNO GONCALVEZ SCHRODER E SOUZA        Rua Coronel Severiano Rezende182                       36240003Santos Dumont  MG0                                                       000                            
7480001300115P 0100437 0000000011578 23245073100000000000111220000045073000001109202300000000002050000000 03N31082023211102023000000000000105000000000000000000000000000000000000000000000000000000                         3001000090000000000 
7480001300116Q 011000008632183699BRUNO MIRANDA PEDRO                     RUA ROBERTO SILVEIRA75                                 36240000SANTOS DUMONT  MG0                                                       000                            
7480001300117P 0100437 0000000011578 23245074800000000000111220000045074000001109202300000000002050000000 03N31082023211102023000000000000105000000000000000000000000000000000000000000000000000000                         3001000090000000000 
7480001300118Q 011000005134993696CAMILA GOUVEA COELHO                    Rua Jorge Simao Couri10                                36240084Santos Dumont  MG0                                                       000                            
7480001300119P 0100437 0000000011578 23245075400000000000111220000045075000001109202300000000002050000000 03N31082023211102023000000000000105000000000000000000000000000000000000000000000000000000                         3001000090000000000 
7480001300120Q 011000009002611617CAMILA HELENA BRANDAO SILVA             Rua Sao Jose101                                        36240171Santos Dumont  MG0                                                       000                            
7480001300121P 0100437 0000000011578 23245076000000000000111220000045076000001109202300000000002050000000 03N31082023211102023000000000000105000000000000000000000000000000000000000000000000000000                         3001000090000000000 
7480001300122Q 011000004114452605CARLA FERREIRA DA COSTA                 Rua Antonio Ladeira54                                  36240030Santos Dumont  MG0                                                       000                            
7480001300123P 0100437 0000000011578 23245077700000000000111220000045077000001109202300000000002050000000 03N31082023211102023000000000000105000000000000000000000000000000000000000000000000000000                         3001000090000000000 
7480001300124Q 011000067455824653CARLA MARCIA DE QUEIROZ PINHEIRO CARVALHRua Paulo Ramos de Faria45                             36242328Santos Dumont  MG0                                                       000                            
7480001300125P 0100437 0000000011578 23245078300000000000111220000045078000001109202300000000002050000000 03N31082023211102023000000000000105000000000000000000000000000000000000000000000000000000                         3001000090000000000 
7480001300126Q 011000057469938672CARLOS ABEL DE OLIVEIRA PASSOS          Rua Sarah Couri de Castro175                           36242344Santos Dumont  MG0                                                       000                            
7480001300127P 0100437 0000000011578 23245079000000000000111220000045079000001109202300000000002050000000 03N31082023211102023000000000000105000000000000000000000000000000000000000000000000000000                         3001000090000000000 
7480001300128Q 011000099822520620CARLOS EDUARDO FLORES                   Rua Jorge Simao Couri06                                36240084Santos Dumont  MG0                                                       000                            
7480001300129P 0100437 0000000011578 23245080800000000000111220000045080000001109202300000000002050000000 03N31082023211102023000000000000105000000000000000000000000000000000000000000000000000000                         3001000090000000000 
7480001300130Q 011000048838837600CARMEM LUCIA GONCALVES                  Rua Coronel Severiano Rezende31                        36240003Santos Dumont  MG0                                                       000                            
7480001300131P 0100437 0000000011578 23245081400000000000111220000045081000001109202300000000002050000000 03N31082023211102023000000000000105000000000000000000000000000000000000000000000000000000                         3001000090000000000 
7480001300132Q 011000009435555667CAROLINA CARREIRA ALVIM                 Rua Sebastiao Davi Fonseca35                           36240220Santos Dumont  MG0                                                       000                            
7480001300133P 0100437 0000000011578 23245082000000000000111220000045082000001109202300000000002050000000 03N31082023211102023000000000000105000000000000000000000000000000000000000000000000000000                         3001000090000000000 
7480001300134Q 011000010631022600CAROLINA DA COSTA PEDRO CAMPOS          Rua Fagundes146                                        36240048Santos Dumont  MG0                                                       000                            
7480001300135P 0100437 0000000011578 23245083700000000000111220000045083000001109202300000000002050000000 03N31082023211102023000000000000105000000000000000000000000000000000000000000000000000000                         3001000090000000000 
7480001300136Q 011000006404212617CASSIO ANTONIO DA SILVA VALINOTE        Rua Doutor Celso Vieira Marques88                      36242360Santos Dumont  MG0                                                       000                            
7480001300137P 0100437 0000000011578 23245084300000000000111220000045084000001109202300000000002050000000 03N31082023211102023000000000000105000000000000000000000000000000000000000000000000000000                         3001000090000000000 
7480001300138Q 011000083087915734CELSO LUIZ DE CASTRO FREITAS            Travessa Madre Dolores32                               36240174Santos Dumont  MG0                                                       000                            
7480001300139P 0100437 0000000011578 23245085000000000000111220000045085000001109202300000000002050000000 03N31082023211102023000000000000105000000000000000000000000000000000000000000000000000000                         3001000090000000000 
7480001300140Q 011000069943516615CESAR RENATO PIRES                      Rua Zulmira Stwillians25                               36244086Santos Dumont  MG0                                                       000                            
7480001300141P 0100437 0000000011578 23245086600000000000111220000045086000001109202300000000002050000000 03N31082023211102023000000000000105000000000000000000000000000000000000000000000000000000                         3001000090000000000 
7480001300142Q 011000003952945684CESNA FREDERICO DOS R HAUCK             Rua Conego Francisco Maximiliano de Oliv               36246003Santos Dumont  MG0                                                       000                            
7480001300143P 0100437 0000000011578 23245087200000000000111220000045087000001109202300000000002050000000 03N31082023211102023000000000000105000000000000000000000000000000000000000000000000000000                         3001000090000000000 
7480001300144Q 011000001604364602CHARLEY WILSON O FERNANDES              Rua Otavio Soares234                                   36246042Santos Dumont  MG0                                                       000                            
7480001300145P 0100437 0000000011578 23245088900000000000111220000045088000001109202300000000002050000000 03N31082023211102023000000000000105000000000000000000000000000000000000000000000000000000                         3001000090000000000 
7480001300146Q 011000003864575656CHRISTIAN R SANTOS A GRUNEWALD          R CARLOS HAUCK 82                                      36240000SANTOS DUMONT  MG0                                                       000                            
7480001300147P 0100437 0000000011578 23245089500000000000111220000045089000001109202300000000002050000000 03N31082023211102023000000000000105000000000000000000000000000000000000000000000000000000                         3001000090000000000 
7480001300148Q 011000004945273669CID CARDOSO BARRETO                     Rua Sebastiao Davi Fonseca98                           36240220Santos Dumont  MG0                                                       000                            
7480001300149P 0100437 0000000011578 23245090300000000000111220000045090000001109202300000000002050000000 03N31082023211102023000000000000105000000000000000000000000000000000000000000000000000000                         3001000090000000000 
7480001300150Q 011000098725270672CILENE MARIA MELADO ALVIM RIBEIRO       Rua do Expedicionario371                               36246063Santos Dumont  MG0                                                       000                            
7480001300151P 0100437 0000000011578 23245091000000000000111220000045091000001109202300000000002050000000 03N31082023211102023000000000000105000000000000000000000000000000000000000000000000000000                         3001000090000000000 
7480001300152Q 011000000127199608CINTIA SILVA SOARES FELICIO             Rua Fagundes177                                        36240048Santos Dumont  MG0                                                       000                            
7480001300153P 0100437 0000000011578 23245092600000000000111220000045092000001109202300000000002050000000 03N31082023211102023000000000000105000000000000000000000000000000000000000000000000000000                         3001000090000000000 
7480001300154Q 011000025948067653CLAUDIO DANILO MALTA CAETANO            Rua Antonio Ferreira Coutinho60                        36244156Santos Dumont  MG0                                                       000                            
7480001300155P 0100437 0000000011578 23245093200000000000111220000045093000001109202300000000002050000000 03N31082023211102023000000000000105000000000000000000000000000000000000000000000000000000                         3001000090000000000 
7480001300156Q 011000003406694624CLAUDIO FONSECA CAETANO                 Rua Silva Fortes38                                     36240021Santos Dumont  MG0                                                       000                            
7480001300157P 0100437 0000000011578 23245094900000000000111220000045094000001109202300000000002050000000 03N31082023211102023000000000000105000000000000000000000000000000000000000000000000000000                         3001000090000000000 
7480001300158Q 011000018143520668CLAUDIO HENRIQUE VOLPI                  Rua Antonio Abud47                                     36240033Santos Dumont  MG0                                                       000                            
7480001300159P 0100437 0000000011578 23245095500000000000111220000045095000001109202300000000002050000000 03N31082023211102023000000000000105000000000000000000000000000000000000000000000000000000                         3001000090000000000 
7480001300160Q 011000096485280634CLEBER DE OLIVEIRA SERAFIM              Rua do Expedicionario230                               36246063Santos Dumont  MG0                                                       000                            
7480001300161P 0100437 0000000011578 23245096100000000000111220000045096000001109202300000000002050000000 03N31082023211102023000000000000105000000000000000000000000000000000000000000000000000000                         3001000090000000000 
7480001300162Q 011000069937702615CLEBER FARIA DA SILVA                   Rua Vieira Braga22                                     36240081Santos Dumont  MG0                                                       000                            
7480001300163P 0100437 0000000011578 23245097800000000000111220000045097000001109202300000000002050000000 03N31082023211102023000000000000105000000000000000000000000000000000000000000000000000000                         3001000090000000000 
7480001300164Q 011000066757878887CLEVIO JOSE DOS SANTOS                  Rua Manoel Alves Sobrinho299                           36242296Santos Dumont  MG0                                                       000                            
7480001300165P 0100437 0000000011578 23245098400000000000111220000045098000001109202300000000002050000000 03N31082023211102023000000000000105000000000000000000000000000000000000000000000000000000                         3001000090000000000 
7480001300166Q 011000061303046687CLODOALDO VELOSO NOVAIS                 Rua Prefeito Jose Goncalves Pereira325                 36240159Santos Dumont  MG0                                                       000                            
7480001300167P 0100437 0000000011578 23245099000000000000111220000045099000001109202300000000002050000000 03N31082023211102023000000000000105000000000000000000000000000000000000000000000000000000                         3001000090000000000 
7480001300168Q 011000098719220600CRISTIANE FERNANDES CAMPOS              Rua Joao Pessoa70                                      36240039Santos Dumont  MG0                                                       000                            
7480001300169P 0100437 0000000011578 23245100900000000000111220000045100000001109202300000000002050000000 03N31082023211102023000000000000105000000000000000000000000000000000000000000000000000000                         3001000090000000000 
7480001300170Q 011000011591518652CRISTIELLEN KAROLINE DE CASTRO FRANCO   Rua Jose Salvador180                                   36246087Santos Dumont  MG0                                                       000                            
7480001300171P 0100437 0000000011578 23245101500000000000111220000045101000001109202300000000002050000000 03N31082023211102023000000000000105000000000000000000000000000000000000000000000000000000                         3001000090000000000 
7480001300172Q 011000003090992698CRISTINA DE OLIVEIRA TANNUS             Rua Sebastiao Davi Fonseca63                           36240220Santos Dumont  MG0                                                       000                            
7480001300173P 0100437 0000000011578 23245102100000000000111220000045102000001109202300000000002050000000 03N31082023211102023000000000000105000000000000000000000000000000000000000000000000000000                         3001000090000000000 
7480001300174Q 011000007383334680DANIEL GUEDES NASCIMENTO                R. PAULINA BARBOSA DE CARVALHO 554                     36240000SANTOS DUMONT  MG0                                                       000                            
7480001300175P 0100437 0000000011578 23245103800000000000111220000045103000001109202300000000002050000000 03N31082023211102023000000000000105000000000000000000000000000000000000000000000000000000                         3001000090000000000 
7480001300176Q 011000005511491675DANIELA ALVIM DOS REIS CRUZ             Rua Orestes Nery93                                     36240212Santos Dumont  MG0                                                       000                            
7480001300177P 0100437 0000000011578 23245104400000000000111220000045104000001109202300000000002050000000 03N31082023211102023000000000000105000000000000000000000000000000000000000000000000000000                         3001000090000000000 
7480001300178Q 011000003402151600DANIELA MENDES BARRETO COSTA            Rua Professor Americo61                                36246012Santos Dumont  MG0                                                       000                            
7480001300179P 0100437 0000000011578 23245105000000000000111220000045105000001109202300000000002050000000 03N31082023211102023000000000000105000000000000000000000000000000000000000000000000000000                         3001000090000000000 
7480001300180Q 011000000906421632DANIELA TAVARES HENRIQUES               Rua Amadeu Boza269                                     36240147Santos Dumont  MG0                                                       000                            
7480001300181P 0100437 0000000011578 23245106700000000000111220000045106000001109202300000000002050000000 03N31082023211102023000000000000105000000000000000000000000000000000000000000000000000000                         3001000090000000000 
7480001300182Q 011000009544248676DANUBIA MARTINS DOS REIS                Rua Antonio Fernandes50                                36246335Santos Dumont  MG0                                                       000                            
7480001300183P 0100437 0000000011578 23245107300000000000111220000045107000001109202300000000002050000000 03N31082023211102023000000000000105000000000000000000000000000000000000000000000000000000                         3001000090000000000 
7480001300184Q 011000038219646691DEISE RIBAS DE SOUZA                    Rua Sao Jose116                                        36240171Santos Dumont  MG0                                                       000                            
7480001300185P 0100437 0000000011578 23245108000000000000111220000045108000001109202300000000002050000000 03N31082023211102023000000000000105000000000000000000000000000000000000000000000000000000                         3001000090000000000 
7480001300186Q 011000004367023630DEIVID ESTEVES DE ALMEIDA               Rua Afonso Pena136                                     36240123Santos Dumont  MG0                                                       000                            
7480001300187P 0100437 0000000011578 23245109600000000000111220000045109000001109202300000000002050000000 03N31082023211102023000000000000105000000000000000000000000000000000000000000000000000000                         3001000090000000000 
7480001300188Q 011000004345571618DENIS DE OLIVEIRA FONSECA               Rua Sarah Couri de Castro20                            36242344Santos Dumont  MG0                                                       000                            
7480001300189P 0100437 0000000011578 23245110400000000000111220000045110000001109202300000000002050000000 03N31082023211102023000000000000105000000000000000000000000000000000000000000000000000000                         3001000090000000000 
7480001300190Q 011000067456502668DENISE BEATRIZ ANDRADE FERNANDES        Rua Quinze de Fevereiro1720                            36246024Santos Dumont  MG0                                                       000                            
7480001300191P 0100437 0000000011578 23245111000000000000111220000045111000001109202300000000002050000000 03N31082023211102023000000000000105000000000000000000000000000000000000000000000000000000                         3001000090000000000 
7480001300192Q 011000033012326634DENISE DE CARVALHO COUTO RIBEIRO        Avenida Presidente Getulio Vargas377                   36240075Santos Dumont  MG0                                                       000                            
7480001300193P 0100437 0000000011578 23245112700000000000111220000045112000001109202300000000002050000000 03N31082023211102023000000000000105000000000000000000000000000000000000000000000000000000                         3001000090000000000 
7480001300194Q 011000041024400620DEOCLIDES DOS SANTOS P NETO             Rua Joao Gomes138                                      36240054Santos Dumont  MG0                                                       000                            
7480001300195P 0100437 0000000011578 23245113300000000000111220000045113000001109202300000000002050000000 03N31082023211102023000000000000105000000000000000000000000000000000000000000000000000000                         3001000090000000000 
7480001300196Q 011000001544720696DIEGO CHRISTIAN DAMASIO                 RUA JOSE DITTZ SOBRINHO75                              36240000Santos Dumont  MG0                                                       000                            
7480001300197P 0100437 0000000011578 23245114000000000000111220000045114000001109202300000000002050000000 03N31082023211102023000000000000105000000000000000000000000000000000000000000000000000000                         3001000090000000000 
7480001300198Q 011000007928633647DIEGO RODRIGUES CAETANO                 Rua Doutor Guilherme de Castro157                      36240183Santos Dumont  MG0                                                       000                            
7480001300199P 0100437 0000000011578 23245115600000000000111220000045115000001109202300000000002050000000 03N31082023211102023000000000000105000000000000000000000000000000000000000000000000000000                         3001000090000000000 
7480001300200Q 011000001396098658DILERMANDO FIDELIS GONCALVES            Rua Professor Americo52                                36246012Santos Dumont  MG0                                                       000                            
7480001300201P 0100437 0000000011578 23245116200000000000111220000045116000001109202300000000002050000000 03N31082023211102023000000000000105000000000000000000000000000000000000000000000000000000                         3001000090000000000 
7480001300202Q 011000067694780649DINE CLEY NEVES DOS SANTOS              Rua Capitao Nestor641                                  36246039Santos Dumont  MG0                                                       000                            
7480001300203P 0100437 0000000011578 23245117900000000000111220000045117000001109202300000000002050000000 03N31082023211102023000000000000105000000000000000000000000000000000000000000000000000000                         3001000090000000000 
7480001300204Q 011000005811290675DIOGO QUINTINO FERREIRA DE ALMEIDA      Avenida Coronel Jose Guilherme de Almeid               36242326Santos Dumont  MG0                                                       000                            
7480001300205P 0100437 0000000011578 23245118500000000000111220000045118000001109202300000000002050000000 03N31082023211102023000000000000105000000000000000000000000000000000000000000000000000000                         3001000090000000000 
7480001300206Q 011000011409266672DORA MATHILDE AMIL IUNES                Rua Senhor dos Passos171                               36240141Santos Dumont  MG0                                                       000                            
7480001300207P 0100437 0000000011578 23245119100000000000111220000045119000001109202300000000002050000000 03N31082023211102023000000000000105000000000000000000000000000000000000000000000000000000                         3001000090000000000 
7480001300208Q 011000043231314615DOUGLAS DE BARROS CUNHA                 Rua Doutor Guilherme de Castro1320                     36240183Santos Dumont  MG0                                                       000                            
7480001300209P 0100437 0000000011578 23245120000000000000111220000045120000001109202300000000002050000000 03N31082023211102023000000000000105000000000000000000000000000000000000000000000000000000                         3001000090000000000 
7480001300210Q 011000009654158647DOUGLAS FERNANDES ALVIM LADEIRA         Rua Afonso Pena543                                     36240123Santos Dumont  MG0                                                       000                            
7480001300211P 0100437 0000000011578 23245121600000000000111220000045121000001109202300000000002050000000 03N31082023211102023000000000000105000000000000000000000000000000000000000000000000000000                         3001000090000000000 
7480001300212Q 011000061303070634EDIGAR HOMERO DE SOUZA                  Rua do Expedicionario304                               36246063Santos Dumont  MG0                                                       000                            
7480001300213P 0100437 0000000011578 23245122200000000000111220000045122000001109202300000000002050000000 03N31082023211102023000000000000105000000000000000000000000000000000000000000000000000000                         3001000090000000000 
7480001300214Q 011000041026128668EDILSON BARROSO DE CARVALHO             Rua Sao Jose388                                        36240171Santos Dumont  MG0                                                       000                            
7480001300215P 0100437 0000000011578 23245123900000000000111220000045123000001109202300000000002050000000 03N31082023211102023000000000000105000000000000000000000000000000000000000000000000000000                         3001000090000000000 
7480001300216Q 011000061301426687EDISON PIRES FELICIANO DE QUEIROZ       Rua Sarah Couri de Castro229                           36242344Santos Dumont  MG0                                                       000                            
7480001300217P 0100437 0000000011578 23245124500000000000111220000045124000001109202300000000002050000000 03N31082023211102023000000000000105000000000000000000000000000000000000000000000000000000                         3001000090000000000 
7480001300218Q 011000003550782608EDMAR DE SOUZA MARTINS                  Rua Coronel Severiano Rezende21                        36240003Santos Dumont  MG0                                                       000                            
7480001300219P 0100437 0000000011578 23245125100000000000111220000045125000001109202300000000002050000000 03N31082023211102023000000000000105000000000000000000000000000000000000000000000000000000                         3001000090000000000 
7480001300220Q 011000064160297668EDSON DE SOUZA MARTINS                  Rua Doutor Guilherme de Castro1026                     36240183Santos Dumont  MG0                                                       000                            
7480001300221P 0100437 0000000011578 23245126800000000000111220000045126000001109202300000000002050000000 03N31082023211102023000000000000105000000000000000000000000000000000000000000000000000000                         3001000090000000000 
7480001300222Q 011000009588043620EDSON TOLEDO E LIMA                     Rua Sarah Couri de Castro105                           36242344Santos Dumont  MG0                                                       000                            
7480001300223P 0100437 0000000011578 23245127400000000000111220000045127000001109202300000000002050000000 03N31082023211102023000000000000105000000000000000000000000000000000000000000000000000000                         3001000090000000000 
7480001300224Q 011000008721331685EDUARDO ABJAUDE ALONSO                  Rua Quinze de Fevereiro1686                            36246024Santos Dumont  MG0                                                       000                            
7480001300225P 0100437 0000000011578 23245128000000000000111220000045128000001109202300000000002050000000 03N31082023211102023000000000000105000000000000000000000000000000000000000000000000000000                         3001000090000000000 
7480001300226Q 011000087434415134EDUARDO ANTONIO ROTATORI PEREIRA        Rua Sao Vicente56                                      36240150Santos Dumont  MG0                                                       000                            
7480001300227P 0100437 0000000011578 23245129700000000000111220000045129000001109202300000000002050000000 03N31082023211102023000000000000105000000000000000000000000000000000000000000000000000000                         3001000090000000000 
7480001300228Q 011000011479852600EDUARDO GUEIROS LOMEU                   Avenida Presidente Getulio Vargas67                    36240075Santos Dumont  MG0                                                       000                            
7480001300229P 0100437 0000000011578 23245130500000000000111220000045130000001109202300000000002050000000 03N31082023211102023000000000000105000000000000000000000000000000000000000000000000000000                         3001000090000000000 
7480001300230Q 011000078816246634EDUARDO JOSE BASTOS FERREIRA            Rua Capitao Nestor631                                  36246039Santos Dumont  MG0                                                       000                            
7480001300231P 0100437 0000000011578 23245131100000000000111220000045131000001109202300000000002050000000 03N31082023211102023000000000000105000000000000000000000000000000000000000000000000000000                         3001000090000000000 
7480001300232Q 011000011062935683EDUARDO NASCIMENTO VOLPE                Rua Antonio Abud47                                     36240033Santos Dumont  MG0                                                       000                            
7480001300233P 0100437 0000000011578 23245132800000000000111220000045132000001109202300000000002050000000 03N31082023211102023000000000000105000000000000000000000000000000000000000000000000000000                         3001000090000000000 
7480001300234Q 011000004792288681EDVALDO GERALDO DE OLIVEIRA             Rua Jose Mendes12                                      36246021Santos Dumont  MG0                                                       000                            
7480001300235P 0100437 0000000011578 23245133400000000000111220000045133000001109202300000000002050000000 03N31082023211102023000000000000105000000000000000000000000000000000000000000000000000000                         3001000090000000000 
7480001300236Q 011000095790110606ELIANDERSON BELCHIOR DO NASCIMENTO      Rua Professor Severino371                              36244000Santos Dumont  MG0                                                       000                            
7480001300237P 0100437 0000000011578 23245134000000000000111220000045134000001109202300000000002050000000 03N31082023211102023000000000000105000000000000000000000000000000000000000000000000000000                         3001000090000000000 
7480001300238Q 011000006504014680ELIZETE FERREIRA FERNANDES              Rua Jose Mendes130                                     36246021Santos Dumont  MG0                                                       000                            
7480001300239P 0100437 0000000011578 23245135700000000000111220000045135000001109202300000000002050000000 03N31082023211102023000000000000105000000000000000000000000000000000000000000000000000000                         3001000090000000000 
7480001300240Q 011000019423489672ELSIE DE SOUZA SA FORTES                Rua Galileu Fonseca20                                  36240111Santos Dumont  MG0                                                       000                            
7480001300241P 0100437 0000000011578 23245136300000000000111220000045136000001109202300000000002050000000 03N31082023211102023000000000000105000000000000000000000000000000000000000000000000000000                         3001000090000000000 
7480001300242Q 011000004346171648ELTON PIZZIOLO MONTEIRO                 Rua Doutor Constantino Horta502                        36246320Santos Dumont  MG0                                                       000                            
7480001300243P 0100437 0000000011578 23245137000000000000111220000045137000001109202300000000002050000000 03N31082023211102023000000000000105000000000000000000000000000000000000000000000000000000                         3001000090000000000 
7480001300244Q 011000005250428657EMERSON GERALDO SOUZA DO NASCIMENTO     Avenida Rui Barbosa200                                 36240108Santos Dumont  MG0                                                       000                            
7480001300245P 0100437 0000000011578 23245138600000000000111220000045138000001109202300000000002050000000 03N31082023211102023000000000000105000000000000000000000000000000000000000000000000000000                         3001000090000000000 
7480001300246Q 011000008241819641EMILIANA CANTON SILVA DE SOUZA          Avenida Presidente Getulio Vargas377                   36240075Santos Dumont  MG0                                                       000                            
7480001300247P 0100437 0000000011578 23245139200000000000111220000045139000001109202300000000002050000000 03N31082023211102023000000000000105000000000000000000000000000000000000000000000000000000                         3001000090000000000 
7480001300248Q 011000016690605604ERCY JOSE TOLEDO                        Rua Luiz Cunha127                                      36240018Santos Dumont  MG0                                                       000                            
7480001300249P 0100437 0000000011578 23245140000000000000111220000045140000001109202300000000002050000000 03N31082023211102023000000000000105000000000000000000000000000000000000000000000000000000                         3001000090000000000 
7480001300250Q 011000095790160620ERICA SILVA BERNARDO                    Rua Coronel Serrado33                                  36240087Santos Dumont  MG0                                                       000                            
7480001300251P 0100437 0000000011578 23245141700000000000111220000045141000001109202300000000002050000000 03N31082023211102023000000000000105000000000000000000000000000000000000000000000000000000                         3001000090000000000 
7480001300252Q 011000080952240653ERNANE LUIZ DE  ANDRADE                 Rua Afonso Pena116                                     36240123Santos Dumont  MG0                                                       000                            
7480001300253P 0100437 0000000011578 23245142300000000000111220000045142000001109202300000000002050000000 03N31082023211102023000000000000105000000000000000000000000000000000000000000000000000000                         3001000090000000000 
7480001300254Q 011000081471700682ESTEFANIA DE CARVALHO                   Rua Fagundes177                                        36240048Santos Dumont  MG0                                                       000                            
7480001300255P 0100437 0000000011578 23245143000000000000111220000045143000001109202300000000002050000000 03N31082023211102023000000000000105000000000000000000000000000000000000000000000000000000                         3001000090000000000 
7480001300256Q 011000044791313615EUGENIO ANTONIO PALMIERI                Praca Cesario Alvim92                                  36240096Santos Dumont  MG0                                                       000                            
7480001300257P 0100437 0000000011578 23245144600000000000111220000045144000001109202300000000002050000000 03N31082023211102023000000000000105000000000000000000000000000000000000000000000000000000                         3001000090000000000 
7480001300258Q 011000067448127691EVALDO CASTELLO BRANCO HENRIQUES        Rua Afonso Pena230                                     36240123Santos Dumont  MG0                                                       000                            
7480001300259P 0100437 0000000011578 23245145200000000000111220000045145000001109202300000000002050000000 03N31082023211102023000000000000105000000000000000000000000000000000000000000000000000000                         3001000090000000000 
7480001300260Q 011000021013705653EVALDO LUIZ BARBOSA FONTES              Rua Francisco Ladeira48                                36240120Santos Dumont  MG0                                                       000                            
7480001300261P 0100437 0000000011578 23245146900000000000111220000045146000001109202300000000002050000000 03N31082023211102023000000000000105000000000000000000000000000000000000000000000000000000                         3001000090000000000 
7480001300262Q 011000038219093668EVANDER COURI DE CASTRO                 Rua Otavio Cunha168                                    36242384Santos Dumont  MG0                                                       000                            
7480001300263P 0100437 0000000011578 23245147500000000000111220000045147000001109202300000000002050000000 03N31082023211102023000000000000105000000000000000000000000000000000000000000000000000000                         3001000090000000000 
7480001300264Q 011000051950650634EVANDRO LUIZ MARQUES PEDROSA            Rua Joaquim Nunes156                                   36244090Santos Dumont  MG0                                                       000                            
7480001300265P 0100437 0000000011578 23245148100000000000111220000045148000001109202300000000002050000000 03N31082023211102023000000000000105000000000000000000000000000000000000000000000000000000                         3001000090000000000 
7480001300266Q 011000008711764678EVELYNE SENRA DE PAIVA                  Avenida Presidente Getulio Vargas 377                  36240075Santos Dumont  MG0                                                       000                            
7480001300267P 0100437 0000000011578 23245149800000000000111220000045149000001109202300000000002050000000 03N31082023211102023000000000000105000000000000000000000000000000000000000000000000000000                         3001000090000000000 
7480001300268Q 011000005397271640EVERTON  ADILIO LOSCHI                  JOSE VIANA GUIMARAES 85                                36240000Santos Dumont  MG0                                                       000                            
7480001300269P 0100437 0000000011578 23245150600000000000111220000045150000001109202300000000002050000000 03N31082023211102023000000000000105000000000000000000000000000000000000000000000000000000                         3001000090000000000 
7480001300270Q 011000006735600665FABIANO DE CARVALHO SILVEIRA            MARIA HILDA DE ABREU52                                 36240000SANTOS DUMONT  MG0                                                       000                            
7480001300271P 0100437 0000000011578 23245151200000000000111220000045151000001109202300000000002050000000 03N31082023211102023000000000000105000000000000000000000000000000000000000000000000000000                         3001000090000000000 
7480001300272Q 011000004069815660FABIO DA SILVA ROCHA                    Rua Manoel Alves Borges87                              36242024Santos Dumont  MG0                                                       000                            
7480001300273P 0100437 0000000011578 23245152900000000000111220000045152000001109202300000000002050000000 03N31082023211102023000000000000105000000000000000000000000000000000000000000000000000000                         3001000090000000000 
7480001300274Q 011000098280112634FABIO LUIZ DOS SANTOS                   Rua Isa117                                             36246099Santos Dumont  MG0                                                       000                            
7480001300275P 0100437 0000000011578 23245153500000000000111220000045153000001109202300000000002050000000 03N31082023211102023000000000000105000000000000000000000000000000000000000000000000000000                         3001000090000000000 
7480001300276Q 011000003004038609FABRICIO BRAZ SILVA FORTES              Rua Afonso Pena516                                     36240123Santos Dumont  MG0                                                       000                            
7480001300277P 0100437 0000000011578 23245154100000000000111220000045154000001109202300000000002050000000 03N31082023211102023000000000000105000000000000000000000000000000000000000000000000000000                         3001000090000000000 
7480001300278Q 011000003225482684FABRICIO ESTEVES DE SOUZA               Rua Jose Belmiro da Silva612                           36244078Santos Dumont  MG0                                                       000                            
7480001300279P 0100437 0000000011578 23245155800000000000111220000045155000001109202300000000002050000000 03N31082023211102023000000000000105000000000000000000000000000000000000000000000000000000                         3001000090000000000 
7480001300280Q 011000084832789600FABRICIO FONSECA CAETANO                Rua Rafhael Jorge Couri270                             36242320Santos Dumont  MG0                                                       000                            
7480001300281P 0100437 0000000011578 23245156400000000000111220000045156000001109202300000000002050000000 03N31082023211102023000000000000105000000000000000000000000000000000000000000000000000000                         3001000090000000000 
7480001300282Q 011000098719335687FABRICIO JOSE TAVARES HENRIQUES         Avenida Rui Barbosa301                                 36240108Santos Dumont  MG0                                                       000                            
7480001300283P 0100437 0000000011578 23245157000000000000111220000045157000001109202300000000002050000000 03N31082023211102023000000000000105000000000000000000000000000000000000000000000000000000                         3001000090000000000 
7480001300284Q 011000004080581610FABRICIO MARY CHAGAS                    Rua Jose Barbosa de Carvalho113                        36244237Santos Dumont  MG0                                                       000                            
7480001300285P 0100437 0000000011578 23245158700000000000111220000045158000001109202300000000002050000000 03N31082023211102023000000000000105000000000000000000000000000000000000000000000000000000                         3001000090000000000 
7480001300286Q 011000008239140629FELIPE ANTONIO MOTA E SILVA             Rua Capitao Nestor810                                  36246039Santos Dumont  MG0                                                       000                            
7480001300287P 0100437 0000000011578 23245159300000000000111220000045159000001109202300000000002050000000 03N31082023211102023000000000000105000000000000000000000000000000000000000000000000000000                         3001000090000000000 
7480001300288Q 011000005718372632FELIPE GONCALVES SCHRODER E SOUZA       Rua Julinho Moreira277                                 36242352Santos Dumont  MG0                                                       000                            
7480001300289P 0100437 0000000011578 23245160100000000000111220000045160000001109202300000000002050000000 03N31082023211102023000000000000105000000000000000000000000000000000000000000000000000000                         3001000090000000000 
7480001300290Q 011000064158411653FERNANDA DA SILVEIRA SOUZA              Rua Capitao Nestor178                                  36246039Santos Dumont  MG0                                                       000                            
7480001300291P 0100437 0000000011578 23245161800000000000111220000045161000001109202300000000002050000000 03N31082023211102023000000000000105000000000000000000000000000000000000000000000000000000                         3001000090000000000 
7480001300292Q 011000005373861650FERNANDA HORTA RAYMUNDO                 Rua Galileu Fonseca15                                  36240111Santos Dumont  MG0                                                       000                            
7480001300293P 0100437 0000000011578 23245162400000000000111220000045162000001109202300000000002050000000 03N31082023211102023000000000000105000000000000000000000000000000000000000000000000000000                         3001000090000000000 
7480001300294Q 011000002558615670FERNANDO ANTONIO DE ABREU LAMOUNIER     Rua Capitao Fidelis19                                  36240180Santos Dumont  MG0                                                       000                            
7480001300295P 0100437 0000000011578 23245163000000000000111220000045163000001109202300000000002050000000 03N31082023211102023000000000000105000000000000000000000000000000000000000000000000000000                         3001000090000000000 
7480001300296Q 011000043229972600FERNANDO CESAR VICTORIA COSTA           Rua Otavio Cunha195                                    36242384Santos Dumont  MG0                                                       000                            
7480001300297P 0100437 0000000011578 23245164700000000000111220000045164000001109202300000000002050000000 03N31082023211102023000000000000105000000000000000000000000000000000000000000000000000000                         3001000090000000000 
7480001300298Q 011000010529804654FERNANDO VAZ DE MELLO OLIVEIRA          Rua Senhor dos Passos07                                36240141Santos Dumont  MG0                                                       000                            
7480001300299P 0100437 0000000011578 23245165300000000000111220000045165000001109202300000000002050000000 03N31082023211102023000000000000105000000000000000000000000000000000000000000000000000000                         3001000090000000000 
7480001300300Q 011000095756051600FILIPE AUGUSTO SANTOS GRUNEWALD         Rua Joao Gomes128                                      36240054Santos Dumont  MG0                                                       000                            
7480001300301P 0100437 0000000011578 23245166000000000000111220000045166000001109202300000000002050000000 03N31082023211102023000000000000105000000000000000000000000000000000000000000000000000000                         3001000090000000000 
7480001300302Q 011000077315707620FLAVIA COURI GABRIEL CUNHA DE OLIVEIRA  Rua Jorge Simao Couri20                                36240084Santos Dumont  MG0                                                       000                            
7480001300303P 0100437 0000000011578 23245167600000000000111220000045167000001109202300000000002050000000 03N31082023211102023000000000000105000000000000000000000000000000000000000000000000000000                         3001000090000000000 
7480001300304Q 011000001405995688FLAVIA SILVA                            Rua Geraldo Vitalino Galdino10                         36242300Santos Dumont  MG0                                                       000                            
7480001300305P 0100437 0000000011578 23245168200000000000111220000045168000001109202300000000002050000000 03N31082023211102023000000000000105000000000000000000000000000000000000000000000000000000                         3001000090000000000 
7480001300306Q 011000006276647683FLAVIO AMARAL VAZ DE MELLO              Alameda Herminia Chaves Pedro29                        36240090Santos Dumont  MG0                                                       000                            
7480001300307P 0100437 0000000011578 23245169900000000000111220000045169000001109202300000000002050000000 03N31082023211102023000000000000105000000000000000000000000000000000000000000000000000000                         3001000090000000000 
7480001300308Q 011000078815886672FLAVIO DE CASTRO NASCIMENTO             Rua Dona Flauzina88                                    36246060Santos Dumont  MG0                                                       000                            
7480001300309P 0100437 0000000011578 23245170700000000000111220000045170000001109202300000000002050000000 03N31082023211102023000000000000105000000000000000000000000000000000000000000000000000000                         3001000090000000000 
7480001300310Q 011000004221081627FLORIVAL GONCALVES GOMES JUNIOR         Rua Carlos Augusto Nascimento2739                      36246338Santos Dumont  MG0                                                       000                            
7480001300311P 0100437 0000000011578 23245171300000000000111220000045171000001109202300000000002050000000 03N31082023211102023000000000000105000000000000000000000000000000000000000000000000000000                         3001000090000000000 
7480001300312Q 011000003735720692FRANCIS DANIEL GONCALVES                Rua Otavio Cunha246                                    36242384Santos Dumont  MG0                                                       000                            
7480001300313P 0100437 0000000011578 23245172000000000000111220000045172000001109202300000000002050000000 03N31082023211102023000000000000105000000000000000000000000000000000000000000000000000000                         3001000090000000000 
7480001300314Q 011000009666665859FRANCISCO JOSE HAUCK ANTUNES            Rua Crispim Pereira Costa109                           36244106Santos Dumont  MG0                                                       000                            
7480001300315P 0100437 0000000011578 23245173600000000000111220000045173000001109202300000000002050000000 03N31082023211102023000000000000105000000000000000000000000000000000000000000000000000000                         3001000090000000000 
7480001300316Q 011000007223207604FREDERICO AMORIM GERMANO                Rua Sebastiao Davi Fonseca93                           36240220Santos Dumont  MG0                                                       000                            
7480001300317P 0100437 0000000011578 23245174200000000000111220000045174000001109202300000000002050000000 03N31082023211102023000000000000105000000000000000000000000000000000000000000000000000000                         3001000090000000000 
7480001300318Q 011000080595456634FREDERICO MARCOS DE CASTRO SILVA        Rua Ana Abreu53                                        36240186Santos Dumont  MG0                                                       000                            
7480001300319P 0100437 0000000011578 23245175900000000000111220000045175000001109202300000000002050000000 03N31082023211102023000000000000105000000000000000000000000000000000000000000000000000000                         3001000090000000000 
7480001300320Q 011000005786055620FREDERICO PITELLA SILVA                 Avenida Rui Barbosa190                                 36240108Santos Dumont  MG0                                                       000                            
7480001300321P 0100437 0000000011578 23245176500000000000111220000045176000001109202300000000002050000000 03N31082023211102023000000000000105000000000000000000000000000000000000000000000000000000                         3001000090000000000 
7480001300322Q 011000008983544635GABRIEL BARROSO DE CARVALHO             Rua Sao Jose388                                        36240171Santos Dumont  MG0                                                       000                            
7480001300323P 0100437 0000000011578 23245177100000000000111220000045177000001109202300000000002050000000 03N31082023211102023000000000000105000000000000000000000000000000000000000000000000000000                         3001000090000000000 
7480001300324Q 011000009783486640GABRIELA MONTESSI DE OLIVEIRA AMARAL SOFRua Doutor Dante Pampanelli15                          36246000Santos Dumont  MG0                                                       000                            
7480001300325P 0100437 0000000011578 23245178800000000000111220000045178000001109202300000000002050000000 03N31082023211102023000000000000105000000000000000000000000000000000000000000000000000000                         3001000090000000000 
7480001300326Q 011000052995070620GEOVANE JOSE VIEIRA MARTINS             Rua Sergio Neves99                                     36240042Santos Dumont  MG0                                                       000                            
7480001300327P 0100437 0000000011578 23245179400000000000111220000045179000001109202300000000002050000000 03N31082023211102023000000000000105000000000000000000000000000000000000000000000000000000                         3001000090000000000 
7480001300328Q 011000043623352691GERALDO CLAUDIO ALVIM ANTUNES           Rua Coronel Serrado52                                  36240087Santos Dumont  MG0                                                       000                            
7480001300329P 0100437 0000000011578 23245180200000000000111220000045180000001109202300000000002050000000 03N31082023211102023000000000000105000000000000000000000000000000000000000000000000000000                         3001000090000000000 
7480001300330Q 011000001498638619GERALDO MAGELLA DA SILVA                Rua do Expedicionario270                               36246063Santos Dumont  MG0                                                       000                            
7480001300331P 0100437 0000000011578 23245181900000000000111220000045181000001109202300000000002050000000 03N31082023211102023000000000000105000000000000000000000000000000000000000000000000000000                         3001000090000000000 
7480001300332Q 011000011871475678GERALDO VENANCIO PATICCIE NETO          Rua Carlos Augusto Nascimento171                       36246338Santos Dumont  MG0                                                       000                            
7480001300333P 0100437 0000000011578 23245182500000000000111220000045182000001109202300000000002050000000 03N31082023211102023000000000000105000000000000000000000000000000000000000000000000000000                         3001000090000000000 
7480001300334Q 011000028263065615GILBERTO OTONI DO NASCIMENTO            Rua Carlos Huack38                                     36242304Santos Dumont  MG0                                                       000                            
7480001300335P 0100437 0000000011578 23245183100000000000111220000045183000001109202300000000002050000000 03N31082023211102023000000000000105000000000000000000000000000000000000000000000000000000                         3001000090000000000 
7480001300336Q 011000037742124734GILMAR CHAVES DE BARROS                 Travessa Vicente Pansardi37                            36240036Santos Dumont  MG0                                                       000                            
7480001300337P 0100437 0000000011578 23245184800000000000111220000045184000001109202300000000002050000000 03N31082023211102023000000000000105000000000000000000000000000000000000000000000000000000                         3001000090000000000 
7480001300338Q 011000043230555600GILMAR DE CASTRO TIMOTEO                Rua Geraldo Coutinho de Souza134                       36240168Santos Dumont  MG0                                                       000                            
7480001300339P 0100437 0000000011578 23245185400000000000111220000045185000001109202300000000002050000000 03N31082023211102023000000000000105000000000000000000000000000000000000000000000000000000                         3001000090000000000 
7480001300340Q 011000025954105634GILMAR PAIVA DA COSTA                   Rua Manoel Alves Sobrinho77                            36242296Santos Dumont  MG0                                                       000                            
7480001300341P 0100437 0000000011578 23245186000000000000111220000045186000001109202300000000002050000000 03N31082023211102023000000000000105000000000000000000000000000000000000000000000000000000                         3001000090000000000 
7480001300342Q 011000010527758612GILMIERLEN APARECIDO NARCISO            Rua Frei Edmar Pulmann39                               36242028Santos Dumont  MG0                                                       000                            
7480001300343P 0100437 0000000011578 23245187700000000000111220000045187000001109202300000000002050000000 03N31082023211102023000000000000105000000000000000000000000000000000000000000000000000000                         3001000090000000000 
7480001300344Q 011000028173104620GILVAN IUNES SA FORTES                  Avenida Presidente Getulio Vargas279                   36240075Santos Dumont  MG0                                                       000                            
7480001300345P 0100437 0000000011578 23245188300000000000111220000045188000001109202300000000002050000000 03N31082023211102023000000000000105000000000000000000000000000000000000000000000000000000                         3001000090000000000 
7480001300346Q 011000009757850608GISLENE ROTATORI ALVIM OLIVEIRA         Rua Senhor dos Passos07                                36240141Santos Dumont  MG0                                                       000                            
7480001300347P 0100437 0000000011578 23245189000000000000111220000045189000001109202300000000002050000000 03N31082023211102023000000000000105000000000000000000000000000000000000000000000000000000                         3001000090000000000 
7480001300348Q 011000077315928634GLAUCO DE ALBUQUERQUE SOUZA             Praca Jose Antonio Pedro05                             36240015Santos Dumont  MG0                                                       000                            
7480001300349P 0100437 0000000011578 23245190800000000000111220000045190000001109202300000000002050000000 03N31082023211102023000000000000105000000000000000000000000000000000000000000000000000000                         3001000090000000000 
7480001300350Q 011000011936807602GRHIMYSON IUNES DE CARVALHO             Rua Senhor dos Passos171                               36240141Santos Dumont  MG0                                                       000                            
7480001300351P 0100437 0000000011578 23245191400000000000111220000045191000001109202300000000002050000000 03N31082023211102023000000000000105000000000000000000000000000000000000000000000000000000                         3001000090000000000 
7480001300352Q 011000012193387613GUIDO MENDONCA ALMEIDA DE CASTRO OLIVEIRAvenida Coronel Jose Guilherme de Almeid               36242326Santos Dumont  MG0                                                       000                            
7480001300353P 0100437 0000000011578 23245192000000000000111220000045192000001109202300000000002050000000 03N31082023211102023000000000000105000000000000000000000000000000000000000000000000000000                         3001000090000000000 
7480001300354Q 011000002871260648GUILHERME ALEXANDRE DOS S. A. GRUNEWALD Rua Professora Maria do Carmo122                       36242276Santos Dumont  MG0                                                       000                            
7480001300355P 0100437 0000000011578 23245193700000000000111220000045193000001109202300000000002050000000 03N31082023211102023000000000000105000000000000000000000000000000000000000000000000000000                         3001000090000000000 
7480001300356Q 011000011580859666GUILHERME DA COSTA VIDAL                Rua Afonso Pena381                                     36240123Santos Dumont  MG0                                                       000                            
7480001300357P 0100437 0000000011578 23245194300000000000111220000045194000001109202300000000002050000000 03N31082023211102023000000000000105000000000000000000000000000000000000000000000000000000                         3001000090000000000 
7480001300358Q 011000005011136655GUILHERME FREDERICO LOPES DA SILVA      Rua Coronel Serrado46                                  36240087Santos Dumont  MG0                                                       000                            
7480001300359P 0100437 0000000011578 23245195000000000000111220000045195000001109202300000000002050000000 03N31082023211102023000000000000105000000000000000000000000000000000000000000000000000000                         3001000090000000000 
7480001300360Q 011000077346823672GUTEMBERG BONIFACIO CELINO              Avenida Presidente Getulio Vargas377                   36240075Santos Dumont  MG0                                                       000                            
7480001300361P 0100437 0000000011578 23245196600000000000111220000045196000001109202300000000002050000000 03N31082023211102023000000000000105000000000000000000000000000000000000000000000000000000                         3001000090000000000 
7480001300362Q 011000003987157690HEBERT ANTONIO DA COSTA                 Rua Capitao Nestor519                                  36246039Santos Dumont  MG0                                                       000                            
7480001300363P 0100437 0000000011578 23245197200000000000111220000045197000001109202300000000002050000000 03N31082023211102023000000000000105000000000000000000000000000000000000000000000000000000                         3001000090000000000 
7480001300364Q 011000098278592691HEBERT ARAUJO AMORIM                    Rua Mario de Freitas67                                 36246006Santos Dumont  MG0                                                       000                            
7480001300365P 0100437 0000000011578 23245198900000000000111220000045198000001109202300000000002050000000 03N31082023211102023000000000000105000000000000000000000000000000000000000000000000000000                         3001000090000000000 
7480001300366Q 011000009212082602HEBERT DAMASCENO ARAUJO LIMA            Avenida Presidente Getulio Vargas269                   36240078Santos Dumont  MG0                                                       000                            
7480001300367P 0100437 0000000011578 23245199500000000000111220000045199000001109202300000000002050000000 03N31082023211102023000000000000105000000000000000000000000000000000000000000000000000000                         3001000090000000000 
7480001300368Q 011000041022394649HELENO RAYMUNDO DE OLIVEIRA             Travessa Vicente Pansardi41                            36240036Santos Dumont  MG0                                                       000                            
7480001300369P 0100437 0000000011578 23245200300000000000111220000045200000001109202300000000002050000000 03N31082023211102023000000000000105000000000000000000000000000000000000000000000000000000                         3001000090000000000 
7480001300370Q 011000005799084616HELIO CARDOSO JUNIOR                    Rua Vieira Braga159                                    36240081Santos Dumont  MG0                                                       000                            
7480001300371P 0100437 0000000011578 23245201000000000000111220000045201000001109202300000000002050000000 03N31082023211102023000000000000105000000000000000000000000000000000000000000000000000000                         3001000090000000000 
7480001300372Q 011000008435507670HENRIQUE NASCIMENTO VOLPE               Rua Antonio Abud47                                     36240033Santos Dumont  MG0                                                       000                            
7480001300373P 0100437 0000000011578 23245202600000000000111220000045202000001109202300000000002050000000 03N31082023211102023000000000000105000000000000000000000000000000000000000000000000000000                         3001000090000000000 
7480001300374Q 011000007339922695HENRY DAMASCENO ARAUJO DE LIMA          Avenida Presidente Getulio Vargas377                   36240075Santos Dumont  MG0                                                       000                            
7480001300375P 0100437 0000000011578 23245203200000000000111220000045203000001109202300000000002050000000 03N31082023211102023000000000000105000000000000000000000000000000000000000000000000000000                         3001000090000000000 
7480001300376Q 011000003756234690HENRY FERREIRA MARQUES                  Rua Galileu Fonseca26                                  36240111Santos Dumont  MG0                                                       000                            
7480001300377P 0100437 0000000011578 23245204900000000000111220000045204000001109202300000000002050000000 03N31082023211102023000000000000105000000000000000000000000000000000000000000000000000000                         3001000090000000000 
7480001300378Q 011000097499951634HERMAM BRUNEL VANI                      Rua Afonso Pena370                                     36240123Santos Dumont  MG0                                                       000                            
7480001300379P 0100437 0000000011578 23245205500000000000111220000045205000001109202300000000002050000000 03N31082023211102023000000000000105000000000000000000000000000000000000000000000000000000                         3001000090000000000 
7480001300380Q 011000006232018605HERMANO PEREIRA BLEI SANT ANNA          Rua Orlando Nerio Rossi60                              36242364Santos Dumont  MG0                                                       000                            
7480001300381P 0100437 0000000011578 23245206100000000000111220000045206000001109202300000000002050000000 03N31082023211102023000000000000105000000000000000000000000000000000000000000000000000000                         3001000090000000000 
7480001300382Q 011000006029920600HIGOR ANTONIO DA COSTA                  R. CASTELO DE SETUBAL612                               31330090Belo Horizonte MG0                                                       000                            
7480001300383P 0100437 0000000011578 23245207800000000000111220000045207000001109202300000000002050000000 03N31082023211102023000000000000105000000000000000000000000000000000000000000000000000000                         3001000090000000000 
7480001300384Q 011000004615496621HILBERT ANTONIO DA COSTA                Rua Professor Oswaldo Angelo de Castro18               36246162Santos Dumont  MG0                                                       000                            
7480001300385P 0100437 0000000011578 23245208400000000000111220000045208000001109202300000000002050000000 03N31082023211102023000000000000105000000000000000000000000000000000000000000000000000000                         3001000090000000000 
7480001300386Q 011000028175565691HILTON PALMIERI ABUD                    Avenida Rui Barbosa150                                 36240108Santos Dumont  MG0                                                       000                            
7480001300387P 0100437 0000000011578 23245209000000000000111220000045209000001109202300000000002050000000 03N31082023211102023000000000000105000000000000000000000000000000000000000000000000000000                         3001000090000000000 
7480001300388Q 011000069939500653HIRAM LUIZ PEREIRA ALVIM                Rua Treze de Maio345                                   36240057Santos Dumont  MG0                                                       000                            
7480001300389P 0100437 0000000011578 23245210900000000000111220000045210000001109202300000000002050000000 03N31082023211102023000000000000105000000000000000000000000000000000000000000000000000000                         3001000090000000000 
7480001300390Q 011000096485256687ISABELITA REGINA DE CERQUEIRA CANTARINO Rua Salomao Abdallah Couri10                           36246448Santos Dumont  MG0                                                       000                            
7480001300391P 0100437 0000000011578 23245211500000000000111220000045211000001109202300000000002050000000 03N31082023211102023000000000000105000000000000000000000000000000000000000000000000000000                         3001000090000000000 
7480001300392Q 011000069942102604ISRAEL FERREIRA CABRAL                  Rua Joaquim Teixeira Ramalho86                         36240210Santos Dumont  MG0                                                       000                            
7480001300393P 0100437 0000000011578 23245212100000000000111220000045212000001109202300000000002050000000 03N31082023211102023000000000000105000000000000000000000000000000000000000000000000000000                         3001000090000000000 
7480001300394Q 011000003855265631IVAN ARAUJO DE MORAES                   Rua Alagoas95                                          36240196Santos Dumont  MG0                                                       000                            
7480001300395P 0100437 0000000011578 23245213800000000000111220000045213000001109202300000000002050000000 03N31082023211102023000000000000105000000000000000000000000000000000000000000000000000000                         3001000090000000000 
7480001300396Q 011000041022424653IVAN DE MELO PEDRO                      Rua Jacob Dittiz48                                     36240024Santos Dumont  MG0                                                       000                            
7480001300397P 0100437 0000000011578 23245214400000000000111220000045214000001109202300000000002050000000 03N31082023211102023000000000000105000000000000000000000000000000000000000000000000000000                         3001000090000000000 
7480001300398Q 011000025954903620IVAN TIMOTHEO                           Avenida Coronel Jose Guilherme de Almeid               36242326Santos Dumont  MG0                                                       000                            
7480001300399P 0100437 0000000011578 23245215000000000000111220000045215000001109202300000000002050000000 03N31082023211102023000000000000105000000000000000000000000000000000000000000000000000000                         3001000090000000000 
7480001300400Q 011000006790814612JANAINA ALVIM MENDES                    Rua Doutor Guilherme de Castro1089                     36240183Santos Dumont  MG0                                                       000                            
7480001300401P 0100437 0000000011578 23245216700000000000111220000045216000001109202300000000002050000000 03N31082023211102023000000000000105000000000000000000000000000000000000000000000000000000                         3001000090000000000 
7480001300402Q 011000003036625658JAQUELINE LISBOA OLIVEIRA GOMES         Rua Amadeu Boza248                                     36240147Santos Dumont  MG0                                                       000                            
7480001300403P 0100437 0000000011578 23245217300000000000111220000045217000001109202300000000002050000000 03N31082023211102023000000000000105000000000000000000000000000000000000000000000000000000                         3001000090000000000 
7480001300404Q 011000048604348034JAYME PILONI JUNIOR                     Praca Bias Fortes198                                   36240138Santos Dumont  MG0                                                       000                            
7480001300405P 0100437 0000000011578 23245218000000000000111220000045218000001109202300000000002050000000 03N31082023211102023000000000000105000000000000000000000000000000000000000000000000000000                         3001000090000000000 
7480001300406Q 011000004116022683JEAN PAULO MELADO ALVIM                 Rua Esperanto38                                        36240226Santos Dumont  MG0                                                       000                            
7480001300407P 0100437 0000000011578 23245219600000000000111220000045219000001109202300000000002050000000 03N31082023211102023000000000000105000000000000000000000000000000000000000000000000000000                         3001000090000000000 
7480001300408Q 011000003017900606JEFERSON ROBERTO CHAGAS                 Avenida Presidente Getulio Vargas95                    36240075Santos Dumont  MG0                                                       000                            
7480001300409P 0100437 0000000011578 23245220400000000000111220000045220000001109202300000000002050000000 03N31082023211102023000000000000105000000000000000000000000000000000000000000000000000000                         3001000090000000000 
7480001300410Q 011000046484523649JOAO BATISTA FERREIRA 2                 Rua Major Cardoso26                                    36246081Santos Dumont  MG0                                                       000                            
7480001300411P 0100437 0000000011578 23245221000000000000111220000045221000001109202300000000002050000000 03N31082023211102023000000000000105000000000000000000000000000000000000000000000000000000                         3001000090000000000 
7480001300412Q 011000028521110634JOAO BATISTA SILVA GOMES                Rua Pedro Ribeiro510                                   36242001Santos Dumont  MG0                                                       000                            
